{
  "contractName": "AuctionFactory",
  "abi": [
    {
      "anonymous": false,
      "inputs": [
        {
          "indexed": false,
          "internalType": "address",
          "name": "auctionContract",
          "type": "address"
        },
        {
          "indexed": false,
          "internalType": "address",
          "name": "owner",
          "type": "address"
        },
        {
          "indexed": false,
          "internalType": "uint256",
          "name": "numAuctions",
          "type": "uint256"
        },
        {
          "indexed": false,
          "internalType": "address[]",
          "name": "allAuctions",
          "type": "address[]"
        }
      ],
      "name": "AuctionCreated",
      "type": "event"
    },
    {
      "inputs": [
        {
          "internalType": "uint256",
          "name": "",
          "type": "uint256"
        }
      ],
      "name": "auctions",
      "outputs": [
        {
          "internalType": "address",
          "name": "",
          "type": "address"
        }
      ],
      "stateMutability": "view",
      "type": "function",
      "constant": true
    },
    {
      "inputs": [
        {
          "internalType": "uint256",
          "name": "duration",
          "type": "uint256"
        },
        {
          "internalType": "uint256",
          "name": "token_ID",
          "type": "uint256"
        }
      ],
      "name": "createAuction",
      "outputs": [],
      "stateMutability": "nonpayable",
      "type": "function"
    },
    {
      "inputs": [],
      "name": "allAuctions",
      "outputs": [
        {
          "internalType": "address[]",
          "name": "",
          "type": "address[]"
        }
      ],
      "stateMutability": "view",
      "type": "function",
      "constant": true
    }
  ],
  "bytecode": "0x608060405234801561001057600080fd5b5061168f806100206000396000f3fe608060405234801561001057600080fd5b50600436106100415760003560e01c80630121683f146100465780631bbcd4a514610062578063571a26a014610080575b600080fd5b610060600480360381019061005b91906102ac565b6100b0565b005b61006a610197565b60405161007791906103dc565b60405180910390f35b61009a600480360381019061009591906103fe565b610225565b6040516100a7919061043a565b60405180910390f35b60003383836040516100c190610264565b6100cd93929190610485565b604051809103906000f0801580156100e9573d6000803e3d6000fd5b5090506000819080600181540180825580915050600190039060005260206000200160009091909190916101000a81548173ffffffffffffffffffffffffffffffffffffffff021916908373ffffffffffffffffffffffffffffffffffffffff1602179055507f0d314047f0d1e39dbbd521f0844c35332083a15926b906540faa68e1a4262b688133600080549050600060405161018a94939291906105a8565b60405180910390a1505050565b6060600080548060200260200160405190810160405280929190818152602001828054801561021b57602002820191906000526020600020905b8160009054906101000a900473ffffffffffffffffffffffffffffffffffffffff1673ffffffffffffffffffffffffffffffffffffffff16815260200190600101908083116101d1575b5050505050905090565b6000818154811061023557600080fd5b906000526020600020016000915054906101000a900473ffffffffffffffffffffffffffffffffffffffff1681565b611065806105f583390190565b600080fd5b6000819050919050565b61028981610276565b811461029457600080fd5b50565b6000813590506102a681610280565b92915050565b600080604083850312156102c3576102c2610271565b5b60006102d185828601610297565b92505060206102e285828601610297565b9150509250929050565b600081519050919050565b600082825260208201905092915050565b6000819050602082019050919050565b600073ffffffffffffffffffffffffffffffffffffffff82169050919050565b600061034382610318565b9050919050565b61035381610338565b82525050565b6000610365838361034a565b60208301905092915050565b6000602082019050919050565b6000610389826102ec565b61039381856102f7565b935061039e83610308565b8060005b838110156103cf5781516103b68882610359565b97506103c183610371565b9250506001810190506103a2565b5085935050505092915050565b600060208201905081810360008301526103f6818461037e565b905092915050565b60006020828403121561041457610413610271565b5b600061042284828501610297565b91505092915050565b61043481610338565b82525050565b600060208201905061044f600083018461042b565b92915050565b600061046082610318565b9050919050565b61047081610455565b82525050565b61047f81610276565b82525050565b600060608201905061049a6000830186610467565b6104a76020830185610476565b6104b46040830184610476565b949350505050565b600081549050919050565b60008190508160005260206000209050919050565b60008160001c9050919050565b600073ffffffffffffffffffffffffffffffffffffffff82169050919050565b600061051c610517836104dc565b6104e9565b9050919050565b600061052f8254610509565b9050919050565b6000600182019050919050565b600061054e826104bc565b61055881856102f7565b9350610563836104c7565b8060005b8381101561059b5761057882610523565b6105828882610359565b975061058d83610536565b925050600181019050610567565b5085935050505092915050565b60006080820190506105bd600083018761042b565b6105ca602083018661042b565b6105d76040830185610476565b81810360608301526105e98184610543565b90509594505050505056fe60806040523480156200001157600080fd5b506040516200106538038062001065833981810160405281019062000037919062000164565b428210156200004557600080fd5b826000806101000a81548173ffffffffffffffffffffffffffffffffffffffff021916908373ffffffffffffffffffffffffffffffffffffffff160217905550816001819055508060028190555060006004819055506000600360016101000a81548160ff021916908315150217905550505050620001c0565b600080fd5b600073ffffffffffffffffffffffffffffffffffffffff82169050919050565b6000620000f182620000c4565b9050919050565b6200010381620000e4565b81146200010f57600080fd5b50565b6000815190506200012381620000f8565b92915050565b6000819050919050565b6200013e8162000129565b81146200014a57600080fd5b50565b6000815190506200015e8162000133565b92915050565b60008060006060848603121562000180576200017f620000bf565b5b6000620001908682870162000112565b9350506020620001a3868287016200014d565b9250506040620001b6868287016200014d565b9150509250925092565b610e9580620001d06000396000f3fe6080604052600436106100a75760003560e01c8063738dff8311610064578063738dff83146101585780638da5cb5b14610183578063a8af2413146101ae578063bcf0ec42146101d9578063bd9215f414610204578063e5c600911461022f576100a7565b806316243356146100ac57806332ffdf80146100d75780633f9942ff146100e15780634aa8e7731461010c57806357ea89b6146101235780636e6452cb1461014e575b600080fd5b3480156100b857600080fd5b506100c161025a565b6040516100ce9190610c6e565b60405180910390f35b6100df610260565b005b3480156100ed57600080fd5b506100f66103f9565b6040516101039190610ca4565b60405180910390f35b34801561011857600080fd5b5061012161040c565b005b34801561012f57600080fd5b5061013861054f565b6040516101459190610ca4565b60405180910390f35b610156610681565b005b34801561016457600080fd5b5061016d610ab2565b60405161017a9190610c6e565b60405180910390f35b34801561018f57600080fd5b50610198610af9565b6040516101a59190610d00565b60405180910390f35b3480156101ba57600080fd5b506101c3610b1d565b6040516101d09190610c6e565b60405180910390f35b3480156101e557600080fd5b506101ee610b23565b6040516101fb9190610c6e565b60405180910390f35b34801561021057600080fd5b50610219610c29565b6040516102269190610d3c565b60405180910390f35b34801561023b57600080fd5b50610244610c4f565b6040516102519190610c6e565b60405180910390f35b60015481565b600360009054906101000a900460ff161561027a57600080fd5b6001546103e84261028b9190610d86565b101561029657600080fd5b600360019054906101000a900460ff16156102b057600080fd5b6001600360016101000a81548160ff0219169083151502179055507fdaec4582d5d9595688c8c98545fdd1c696d41c6aeaeb636737e84ed2f5c00eda600360029054906101000a900473ffffffffffffffffffffffffffffffffffffffff16600454604051610320929190610de0565b60405180910390a160008054906101000a900473ffffffffffffffffffffffffffffffffffffffff1673ffffffffffffffffffffffffffffffffffffffff166108fc6004549081150290604051600060405180830381858888f19350505050158015610390573d6000803e3d6000fd5b506000600560008060009054906101000a900473ffffffffffffffffffffffffffffffffffffffff1673ffffffffffffffffffffffffffffffffffffffff1673ffffffffffffffffffffffffffffffffffffffff16815260200190815260200160002081905550565b600360009054906101000a900460ff1681565b60008054906101000a900473ffffffffffffffffffffffffffffffffffffffff1673ffffffffffffffffffffffffffffffffffffffff163373ffffffffffffffffffffffffffffffffffffffff161461046457600080fd5b6001546103e8426104759190610d86565b10801561048f5750600360019054906101000a900460ff16155b156105485760045460056000600360029054906101000a900473ffffffffffffffffffffffffffffffffffffffff1673ffffffffffffffffffffffffffffffffffffffff1673ffffffffffffffffffffffffffffffffffffffff168152602001908152602001600020819055506001600360006101000a81548160ff0219169083151502179055507f3edab9d02702b82c68bc3a966d302af41abe4f3d8e2408b27b94e5f9bf2d722c60405160405180910390a161054d565b600080fd5b565b600080600560003373ffffffffffffffffffffffffffffffffffffffff1673ffffffffffffffffffffffffffffffffffffffff168152602001908152602001600020549050600081111561066e576000600560003373ffffffffffffffffffffffffffffffffffffffff1673ffffffffffffffffffffffffffffffffffffffff168152602001908152602001600020819055503373ffffffffffffffffffffffffffffffffffffffff166108fc829081150290604051600060405180830381858888f193505050506106695780600560003373ffffffffffffffffffffffffffffffffffffffff1673ffffffffffffffffffffffffffffffffffffffff16815260200190815260200160002081905550600091505061067e565b610678565b600091505061067e565b60019150505b90565b60008054906101000a900473ffffffffffffffffffffffffffffffffffffffff1673ffffffffffffffffffffffffffffffffffffffff163373ffffffffffffffffffffffffffffffffffffffff1614156106da57600080fd5b6001546103e8426106eb9190610d86565b1080156107055750600360019054906101000a900460ff16155b15610aab57600360009054906101000a900460ff161561072457600080fd5b600360029054906101000a900473ffffffffffffffffffffffffffffffffffffffff1673ffffffffffffffffffffffffffffffffffffffff163373ffffffffffffffffffffffffffffffffffffffff16141561079a576004546004543461078b9190610e09565b1161079557600080fd5b6107f3565b600454600560003373ffffffffffffffffffffffffffffffffffffffff1673ffffffffffffffffffffffffffffffffffffffff16815260200190815260200160002054346107e89190610e09565b116107f257600080fd5b5b60006004541415610890576000600560003373ffffffffffffffffffffffffffffffffffffffff1673ffffffffffffffffffffffffffffffffffffffff168152602001908152602001600020819055503460048190555033600360026101000a81548173ffffffffffffffffffffffffffffffffffffffff021916908373ffffffffffffffffffffffffffffffffffffffff1602179055506109e2565b60045460056000600360029054906101000a900473ffffffffffffffffffffffffffffffffffffffff1673ffffffffffffffffffffffffffffffffffffffff1673ffffffffffffffffffffffffffffffffffffffff16815260200190815260200160002060008282546109039190610e09565b9250508190555033600360026101000a81548173ffffffffffffffffffffffffffffffffffffffff021916908373ffffffffffffffffffffffffffffffffffffffff160217905550600560003373ffffffffffffffffffffffffffffffffffffffff1673ffffffffffffffffffffffffffffffffffffffff16815260200190815260200160002054346109969190610e09565b6004819055506000600560003373ffffffffffffffffffffffffffffffffffffffff1673ffffffffffffffffffffffffffffffffffffffff168152602001908152602001600020819055505b600454600560008060009054906101000a900473ffffffffffffffffffffffffffffffffffffffff1673ffffffffffffffffffffffffffffffffffffffff1673ffffffffffffffffffffffffffffffffffffffff168152602001908152602001600020819055507f3b6eeb239f0bdbbc3f580eca284f421f4903b8fc40d48cb73bc00b8fb920c350600360029054906101000a900473ffffffffffffffffffffffffffffffffffffffff16600454604051610a9e929190610de0565b60405180910390a1610ab0565b600080fd5b565b6000600560003373ffffffffffffffffffffffffffffffffffffffff1673ffffffffffffffffffffffffffffffffffffffff16815260200190815260200160002054905090565b60008054906101000a900473ffffffffffffffffffffffffffffffffffffffff1681565b60025481565b60008060009054906101000a900473ffffffffffffffffffffffffffffffffffffffff1673ffffffffffffffffffffffffffffffffffffffff163373ffffffffffffffffffffffffffffffffffffffff161415610b835760009050610c26565b600360029054906101000a900473ffffffffffffffffffffffffffffffffffffffff1673ffffffffffffffffffffffffffffffffffffffff163373ffffffffffffffffffffffffffffffffffffffff161415610be3576004549050610c26565b600560003373ffffffffffffffffffffffffffffffffffffffff1673ffffffffffffffffffffffffffffffffffffffff1681526020019081526020016000205490505b90565b600360029054906101000a900473ffffffffffffffffffffffffffffffffffffffff1681565b60045481565b6000819050919050565b610c6881610c55565b82525050565b6000602082019050610c836000830184610c5f565b92915050565b60008115159050919050565b610c9e81610c89565b82525050565b6000602082019050610cb96000830184610c95565b92915050565b600073ffffffffffffffffffffffffffffffffffffffff82169050919050565b6000610cea82610cbf565b9050919050565b610cfa81610cdf565b82525050565b6000602082019050610d156000830184610cf1565b92915050565b6000610d2682610cbf565b9050919050565b610d3681610d1b565b82525050565b6000602082019050610d516000830184610d2d565b92915050565b7f4e487b7100000000000000000000000000000000000000000000000000000000600052601160045260246000fd5b6000610d9182610c55565b9150610d9c83610c55565b9250817fffffffffffffffffffffffffffffffffffffffffffffffffffffffffffffffff0483118215151615610dd557610dd4610d57565b5b828202905092915050565b6000604082019050610df56000830185610d2d565b610e026020830184610c5f565b9392505050565b6000610e1482610c55565b9150610e1f83610c55565b9250827fffffffffffffffffffffffffffffffffffffffffffffffffffffffffffffffff03821115610e5457610e53610d57565b5b82820190509291505056fea26469706673582212207f6a0e41eaedbf9f9ddd3e6a734b5e4a75c3e7a91ac10745166e3556fc7ebf6664736f6c63430008090033a2646970667358221220d09d085aada9b4fc1a3ee036dc8716c5c52051c7c41f0d6a655cdc683eeb2d8064736f6c63430008090033",
  "immutableReferences": {},
  "source": "// SPDX-License-Identifier: MIT\npragma solidity ^0.8.0;\n\nimport { Auction } from './Auction.sol';\n\ncontract AuctionFactory {\n    address[] public auctions;\n    event AuctionCreated(address auctionContract, address owner, uint numAuctions, address[] allAuctions);\n\n    function createAuction(uint duration, uint256 token_ID) public {\n        Auction newAuction = new Auction(payable(msg.sender), duration, token_ID);\n        auctions.push(address(newAuction));\n\n        emit AuctionCreated(address(newAuction), msg.sender, auctions.length, auctions);\n    }\n\n    function allAuctions() public view returns (address[] memory){\n        return auctions;\n    }\n}",
  "sourcePath": "/home/cr7st/BlockChain/NFT_auction/contracts/AuctionFactory.sol",
  "compiler": {
    "name": "solc",
    "version": "0.8.9+commit.e5eed63a.Emscripten.clang"
  },
  "schemaVersion": "3.4.3",
  "updatedAt": "2021-11-02T12:29:25.739Z",
  "networkType": "ethereum",
  "devdoc": {
    "kind": "dev",
    "methods": {},
    "version": 1
  },
  "userdoc": {
    "kind": "user",
    "methods": {},
    "version": 1
  }
}