{
  "contractName": "Auction",
  "abi": [
    {
      "inputs": [
        {
          "internalType": "address payable",
          "name": "_owner",
          "type": "address"
        },
        {
          "internalType": "uint256",
          "name": "_end_time",
          "type": "uint256"
        },
        {
          "internalType": "uint256",
          "name": "_token_ID",
          "type": "uint256"
        }
      ],
      "stateMutability": "nonpayable",
      "type": "constructor"
    },
    {
      "anonymous": false,
      "inputs": [],
      "name": "AuctionCanceled",
      "type": "event"
    },
    {
      "anonymous": false,
      "inputs": [
        {
          "indexed": false,
          "internalType": "address",
          "name": "winner",
          "type": "address"
        },
        {
          "indexed": false,
          "internalType": "uint256",
          "name": "price",
          "type": "uint256"
        }
      ],
      "name": "AuctionEnded",
      "type": "event"
    },
    {
      "anonymous": false,
      "inputs": [
        {
          "indexed": false,
          "internalType": "address",
          "name": "bidder",
          "type": "address"
        },
        {
          "indexed": false,
          "internalType": "uint256",
          "name": "bid",
          "type": "uint256"
        }
      ],
      "name": "HighestBidChanged",
      "type": "event"
    },
    {
      "inputs": [],
      "name": "canceled",
      "outputs": [
        {
          "internalType": "bool",
          "name": "",
          "type": "bool"
        }
      ],
      "stateMutability": "view",
      "type": "function"
    },
    {
      "inputs": [],
      "name": "end_time",
      "outputs": [
        {
          "internalType": "uint256",
          "name": "",
          "type": "uint256"
        }
      ],
      "stateMutability": "view",
      "type": "function"
    },
    {
      "inputs": [],
      "name": "highest_bid",
      "outputs": [
        {
          "internalType": "uint256",
          "name": "",
          "type": "uint256"
        }
      ],
      "stateMutability": "view",
      "type": "function"
    },
    {
      "inputs": [],
      "name": "highest_bidder",
      "outputs": [
        {
          "internalType": "address",
          "name": "",
          "type": "address"
        }
      ],
      "stateMutability": "view",
      "type": "function"
    },
    {
      "inputs": [],
      "name": "owner",
      "outputs": [
        {
          "internalType": "address payable",
          "name": "",
          "type": "address"
        }
      ],
      "stateMutability": "view",
      "type": "function"
    },
    {
      "inputs": [],
      "name": "token_ID",
      "outputs": [
        {
          "internalType": "uint256",
          "name": "",
          "type": "uint256"
        }
      ],
      "stateMutability": "view",
      "type": "function"
    },
    {
      "inputs": [],
      "name": "Bid",
      "outputs": [],
      "stateMutability": "payable",
      "type": "function"
    },
    {
      "inputs": [],
      "name": "AuctionEnd",
      "outputs": [],
      "stateMutability": "payable",
      "type": "function"
    },
    {
      "inputs": [],
      "name": "Withdraw",
      "outputs": [
        {
          "internalType": "bool",
          "name": "",
          "type": "bool"
        }
      ],
      "stateMutability": "nonpayable",
      "type": "function"
    },
    {
      "inputs": [],
      "name": "Cancel",
      "outputs": [],
      "stateMutability": "nonpayable",
      "type": "function"
    },
    {
      "inputs": [],
      "name": "LookUpBid",
      "outputs": [
        {
          "internalType": "uint256",
          "name": "",
          "type": "uint256"
        }
      ],
      "stateMutability": "view",
      "type": "function"
    },
    {
      "inputs": [],
      "name": "LookUpFund",
      "outputs": [
        {
          "internalType": "uint256",
          "name": "",
          "type": "uint256"
        }
      ],
      "stateMutability": "view",
      "type": "function"
    }
  ],
  "bytecode": "0x60806040523480156200001157600080fd5b506040516200106538038062001065833981810160405281019062000037919062000164565b428210156200004557600080fd5b826000806101000a81548173ffffffffffffffffffffffffffffffffffffffff021916908373ffffffffffffffffffffffffffffffffffffffff160217905550816001819055508060028190555060006004819055506000600360016101000a81548160ff021916908315150217905550505050620001c0565b600080fd5b600073ffffffffffffffffffffffffffffffffffffffff82169050919050565b6000620000f182620000c4565b9050919050565b6200010381620000e4565b81146200010f57600080fd5b50565b6000815190506200012381620000f8565b92915050565b6000819050919050565b6200013e8162000129565b81146200014a57600080fd5b50565b6000815190506200015e8162000133565b92915050565b60008060006060848603121562000180576200017f620000bf565b5b6000620001908682870162000112565b9350506020620001a3868287016200014d565b9250506040620001b6868287016200014d565b9150509250925092565b610e9580620001d06000396000f3fe6080604052600436106100a75760003560e01c8063738dff8311610064578063738dff83146101585780638da5cb5b14610183578063a8af2413146101ae578063bcf0ec42146101d9578063bd9215f414610204578063e5c600911461022f576100a7565b806316243356146100ac57806332ffdf80146100d75780633f9942ff146100e15780634aa8e7731461010c57806357ea89b6146101235780636e6452cb1461014e575b600080fd5b3480156100b857600080fd5b506100c161025a565b6040516100ce9190610c6e565b60405180910390f35b6100df610260565b005b3480156100ed57600080fd5b506100f66103f9565b6040516101039190610ca4565b60405180910390f35b34801561011857600080fd5b5061012161040c565b005b34801561012f57600080fd5b5061013861054f565b6040516101459190610ca4565b60405180910390f35b610156610681565b005b34801561016457600080fd5b5061016d610ab2565b60405161017a9190610c6e565b60405180910390f35b34801561018f57600080fd5b50610198610af9565b6040516101a59190610d00565b60405180910390f35b3480156101ba57600080fd5b506101c3610b1d565b6040516101d09190610c6e565b60405180910390f35b3480156101e557600080fd5b506101ee610b23565b6040516101fb9190610c6e565b60405180910390f35b34801561021057600080fd5b50610219610c29565b6040516102269190610d3c565b60405180910390f35b34801561023b57600080fd5b50610244610c4f565b6040516102519190610c6e565b60405180910390f35b60015481565b600360009054906101000a900460ff161561027a57600080fd5b6001546103e84261028b9190610d86565b101561029657600080fd5b600360019054906101000a900460ff16156102b057600080fd5b6001600360016101000a81548160ff0219169083151502179055507fdaec4582d5d9595688c8c98545fdd1c696d41c6aeaeb636737e84ed2f5c00eda600360029054906101000a900473ffffffffffffffffffffffffffffffffffffffff16600454604051610320929190610de0565b60405180910390a160008054906101000a900473ffffffffffffffffffffffffffffffffffffffff1673ffffffffffffffffffffffffffffffffffffffff166108fc6004549081150290604051600060405180830381858888f19350505050158015610390573d6000803e3d6000fd5b506000600560008060009054906101000a900473ffffffffffffffffffffffffffffffffffffffff1673ffffffffffffffffffffffffffffffffffffffff1673ffffffffffffffffffffffffffffffffffffffff16815260200190815260200160002081905550565b600360009054906101000a900460ff1681565b60008054906101000a900473ffffffffffffffffffffffffffffffffffffffff1673ffffffffffffffffffffffffffffffffffffffff163373ffffffffffffffffffffffffffffffffffffffff161461046457600080fd5b6001546103e8426104759190610d86565b10801561048f5750600360019054906101000a900460ff16155b156105485760045460056000600360029054906101000a900473ffffffffffffffffffffffffffffffffffffffff1673ffffffffffffffffffffffffffffffffffffffff1673ffffffffffffffffffffffffffffffffffffffff168152602001908152602001600020819055506001600360006101000a81548160ff0219169083151502179055507f3edab9d02702b82c68bc3a966d302af41abe4f3d8e2408b27b94e5f9bf2d722c60405160405180910390a161054d565b600080fd5b565b600080600560003373ffffffffffffffffffffffffffffffffffffffff1673ffffffffffffffffffffffffffffffffffffffff168152602001908152602001600020549050600081111561066e576000600560003373ffffffffffffffffffffffffffffffffffffffff1673ffffffffffffffffffffffffffffffffffffffff168152602001908152602001600020819055503373ffffffffffffffffffffffffffffffffffffffff166108fc829081150290604051600060405180830381858888f193505050506106695780600560003373ffffffffffffffffffffffffffffffffffffffff1673ffffffffffffffffffffffffffffffffffffffff16815260200190815260200160002081905550600091505061067e565b610678565b600091505061067e565b60019150505b90565b60008054906101000a900473ffffffffffffffffffffffffffffffffffffffff1673ffffffffffffffffffffffffffffffffffffffff163373ffffffffffffffffffffffffffffffffffffffff1614156106da57600080fd5b6001546103e8426106eb9190610d86565b1080156107055750600360019054906101000a900460ff16155b15610aab57600360009054906101000a900460ff161561072457600080fd5b600360029054906101000a900473ffffffffffffffffffffffffffffffffffffffff1673ffffffffffffffffffffffffffffffffffffffff163373ffffffffffffffffffffffffffffffffffffffff16141561079a576004546004543461078b9190610e09565b1161079557600080fd5b6107f3565b600454600560003373ffffffffffffffffffffffffffffffffffffffff1673ffffffffffffffffffffffffffffffffffffffff16815260200190815260200160002054346107e89190610e09565b116107f257600080fd5b5b60006004541415610890576000600560003373ffffffffffffffffffffffffffffffffffffffff1673ffffffffffffffffffffffffffffffffffffffff168152602001908152602001600020819055503460048190555033600360026101000a81548173ffffffffffffffffffffffffffffffffffffffff021916908373ffffffffffffffffffffffffffffffffffffffff1602179055506109e2565b60045460056000600360029054906101000a900473ffffffffffffffffffffffffffffffffffffffff1673ffffffffffffffffffffffffffffffffffffffff1673ffffffffffffffffffffffffffffffffffffffff16815260200190815260200160002060008282546109039190610e09565b9250508190555033600360026101000a81548173ffffffffffffffffffffffffffffffffffffffff021916908373ffffffffffffffffffffffffffffffffffffffff160217905550600560003373ffffffffffffffffffffffffffffffffffffffff1673ffffffffffffffffffffffffffffffffffffffff16815260200190815260200160002054346109969190610e09565b6004819055506000600560003373ffffffffffffffffffffffffffffffffffffffff1673ffffffffffffffffffffffffffffffffffffffff168152602001908152602001600020819055505b600454600560008060009054906101000a900473ffffffffffffffffffffffffffffffffffffffff1673ffffffffffffffffffffffffffffffffffffffff1673ffffffffffffffffffffffffffffffffffffffff168152602001908152602001600020819055507f3b6eeb239f0bdbbc3f580eca284f421f4903b8fc40d48cb73bc00b8fb920c350600360029054906101000a900473ffffffffffffffffffffffffffffffffffffffff16600454604051610a9e929190610de0565b60405180910390a1610ab0565b600080fd5b565b6000600560003373ffffffffffffffffffffffffffffffffffffffff1673ffffffffffffffffffffffffffffffffffffffff16815260200190815260200160002054905090565b60008054906101000a900473ffffffffffffffffffffffffffffffffffffffff1681565b60025481565b60008060009054906101000a900473ffffffffffffffffffffffffffffffffffffffff1673ffffffffffffffffffffffffffffffffffffffff163373ffffffffffffffffffffffffffffffffffffffff161415610b835760009050610c26565b600360029054906101000a900473ffffffffffffffffffffffffffffffffffffffff1673ffffffffffffffffffffffffffffffffffffffff163373ffffffffffffffffffffffffffffffffffffffff161415610be3576004549050610c26565b600560003373ffffffffffffffffffffffffffffffffffffffff1673ffffffffffffffffffffffffffffffffffffffff1681526020019081526020016000205490505b90565b600360029054906101000a900473ffffffffffffffffffffffffffffffffffffffff1681565b60045481565b6000819050919050565b610c6881610c55565b82525050565b6000602082019050610c836000830184610c5f565b92915050565b60008115159050919050565b610c9e81610c89565b82525050565b6000602082019050610cb96000830184610c95565b92915050565b600073ffffffffffffffffffffffffffffffffffffffff82169050919050565b6000610cea82610cbf565b9050919050565b610cfa81610cdf565b82525050565b6000602082019050610d156000830184610cf1565b92915050565b6000610d2682610cbf565b9050919050565b610d3681610d1b565b82525050565b6000602082019050610d516000830184610d2d565b92915050565b7f4e487b7100000000000000000000000000000000000000000000000000000000600052601160045260246000fd5b6000610d9182610c55565b9150610d9c83610c55565b9250817fffffffffffffffffffffffffffffffffffffffffffffffffffffffffffffffff0483118215151615610dd557610dd4610d57565b5b828202905092915050565b6000604082019050610df56000830185610d2d565b610e026020830184610c5f565b9392505050565b6000610e1482610c55565b9150610e1f83610c55565b9250827fffffffffffffffffffffffffffffffffffffffffffffffffffffffffffffffff03821115610e5457610e53610d57565b5b82820190509291505056fea26469706673582212207f6a0e41eaedbf9f9ddd3e6a734b5e4a75c3e7a91ac10745166e3556fc7ebf6664736f6c63430008090033",
  "immutableReferences": {},
  "source": "// SPDX-License-Identifier: MIT\npragma solidity ^0.8.0;\n//import \"./NFT_manage.sol\";\n\ncontract Auction{\n    address payable public owner;\n    uint public end_time;\n    uint256 public token_ID;\n    bool public canceled;\n    bool ended;\n    address public highest_bidder;\n    uint public highest_bid;\n    mapping(address => uint256) funds_of_bidder;\n\n    constructor(address payable _owner, uint _end_time, uint256 _token_ID){\n        if (_end_time < block.timestamp) revert();\n        owner = _owner;\n        end_time = _end_time;\n        token_ID = _token_ID;\n        highest_bid = 0;\n        ended = false;\n    }\n\n    event HighestBidChanged(address bidder, uint bid);\n    event AuctionEnded(address winner, uint price);\n    event AuctionCanceled();\n\n    modifier onlyNotOwner{\n        require(msg.sender != owner);\n        _;\n    }\n\n    modifier onlyBeforeEnd{\n        if (block.timestamp * 1000 < end_time && !ended) _;\n        else {\n            revert();\n        }\n    }\n\n    modifier onlyOwner{\n        require(msg.sender == owner);\n        _;\n    }\n\n    modifier onlyNotCanceled{\n        require(!canceled);\n        _;\n    }\n\n    function Bid() public payable onlyNotOwner onlyBeforeEnd onlyNotCanceled{\n        if (msg.sender == highest_bidder){\n            if (msg.value + highest_bid <= highest_bid){\n                revert();\n            }\n        }\n        else{\n            if (msg.value + funds_of_bidder[msg.sender] <= highest_bid){\n                revert();\n            }\n        }\n\n        if (highest_bid == 0){\n            funds_of_bidder[msg.sender] = 0;\n            highest_bid = msg.value;\n            highest_bidder = msg.sender;\n        }\n        else {\n            funds_of_bidder[highest_bidder] += highest_bid;\n            highest_bidder = msg.sender;\n            highest_bid = msg.value + funds_of_bidder[msg.sender];\n            funds_of_bidder[msg.sender] = 0;\n        }\n        funds_of_bidder[owner] = highest_bid;\n        \n        emit HighestBidChanged(highest_bidder, highest_bid);\n    }\n\n    function AuctionEnd() public payable onlyNotCanceled{\n        if (block.timestamp * 1000 < end_time) revert();\n        if (ended) revert();\n\n        ended = true;\n        emit AuctionEnded(highest_bidder, highest_bid);\n        owner.transfer(highest_bid);\n        funds_of_bidder[owner] = 0;\n    }\n\n    function Withdraw() public returns (bool){\n        uint amount = funds_of_bidder[msg.sender];\n        if (amount > 0){\n            funds_of_bidder[msg.sender] = 0;\n            if (!payable(msg.sender).send(amount)){\n                funds_of_bidder[msg.sender] = amount;\n                return false;\n            }\n        }\n        else {\n            return false;\n        }\n        return true;\n    }\n\n    function Cancel() public onlyOwner onlyBeforeEnd{\n        funds_of_bidder[highest_bidder] = highest_bid;\n        canceled = true;\n        emit AuctionCanceled();\n    }\n\n    function LookUpBid() public view returns (uint){\n        if (msg.sender == owner) {\n            return 0;\n        }\n        else if (msg.sender == highest_bidder){\n            return highest_bid;\n        }\n        else {\n            return funds_of_bidder[msg.sender];\n        }\n    }\n\n    function LookUpFund() public view returns (uint){\n        return funds_of_bidder[msg.sender];\n    }\n}",
  "sourcePath": "/home/cr7st/BlockChain/NFT_auction/contracts/Auction.sol",
  "compiler": {
    "name": "solc",
    "version": "0.8.9+commit.e5eed63a.Emscripten.clang"
  },
  "schemaVersion": "3.4.3",
  "updatedAt": "2021-11-02T12:29:18.941Z",
  "devdoc": {
    "kind": "dev",
    "methods": {},
    "version": 1
  },
  "userdoc": {
    "kind": "user",
    "methods": {},
    "version": 1
  }
}