{
  "contractName": "NFTManage",
  "abi": [
    {
      "inputs": [],
      "stateMutability": "nonpayable",
      "type": "constructor"
    },
    {
      "anonymous": false,
      "inputs": [
        {
          "indexed": true,
          "internalType": "address",
          "name": "owner",
          "type": "address"
        },
        {
          "indexed": true,
          "internalType": "address",
          "name": "approved",
          "type": "address"
        },
        {
          "indexed": true,
          "internalType": "uint256",
          "name": "tokenId",
          "type": "uint256"
        }
      ],
      "name": "Approval",
      "type": "event"
    },
    {
      "anonymous": false,
      "inputs": [
        {
          "indexed": true,
          "internalType": "address",
          "name": "owner",
          "type": "address"
        },
        {
          "indexed": true,
          "internalType": "address",
          "name": "operator",
          "type": "address"
        },
        {
          "indexed": false,
          "internalType": "bool",
          "name": "approved",
          "type": "bool"
        }
      ],
      "name": "ApprovalForAll",
      "type": "event"
    },
    {
      "anonymous": false,
      "inputs": [
        {
          "indexed": false,
          "internalType": "address",
          "name": "owner",
          "type": "address"
        },
        {
          "indexed": false,
          "internalType": "uint256",
          "name": "token_ID",
          "type": "uint256"
        }
      ],
      "name": "TokenCreated",
      "type": "event"
    },
    {
      "anonymous": false,
      "inputs": [
        {
          "indexed": false,
          "internalType": "uint256",
          "name": "token_ID",
          "type": "uint256"
        },
        {
          "indexed": false,
          "internalType": "address",
          "name": "from",
          "type": "address"
        },
        {
          "indexed": false,
          "internalType": "address",
          "name": "to",
          "type": "address"
        }
      ],
      "name": "TokenTransfered",
      "type": "event"
    },
    {
      "anonymous": false,
      "inputs": [
        {
          "indexed": true,
          "internalType": "address",
          "name": "from",
          "type": "address"
        },
        {
          "indexed": true,
          "internalType": "address",
          "name": "to",
          "type": "address"
        },
        {
          "indexed": true,
          "internalType": "uint256",
          "name": "tokenId",
          "type": "uint256"
        }
      ],
      "name": "Transfer",
      "type": "event"
    },
    {
      "inputs": [
        {
          "internalType": "uint256",
          "name": "",
          "type": "uint256"
        }
      ],
      "name": "NFTs",
      "outputs": [
        {
          "internalType": "address",
          "name": "owner",
          "type": "address"
        },
        {
          "internalType": "address",
          "name": "minter",
          "type": "address"
        },
        {
          "internalType": "address",
          "name": "previous_owner",
          "type": "address"
        },
        {
          "internalType": "uint256",
          "name": "token_ID",
          "type": "uint256"
        },
        {
          "internalType": "string",
          "name": "name",
          "type": "string"
        },
        {
          "internalType": "bool",
          "name": "onSale",
          "type": "bool"
        },
        {
          "internalType": "string",
          "name": "URI",
          "type": "string"
        }
      ],
      "stateMutability": "view",
      "type": "function",
      "constant": true
    },
    {
      "inputs": [
        {
          "internalType": "address",
          "name": "to",
          "type": "address"
        },
        {
          "internalType": "uint256",
          "name": "tokenId",
          "type": "uint256"
        }
      ],
      "name": "approve",
      "outputs": [],
      "stateMutability": "nonpayable",
      "type": "function"
    },
    {
      "inputs": [
        {
          "internalType": "address",
          "name": "owner",
          "type": "address"
        }
      ],
      "name": "balanceOf",
      "outputs": [
        {
          "internalType": "uint256",
          "name": "",
          "type": "uint256"
        }
      ],
      "stateMutability": "view",
      "type": "function",
      "constant": true
    },
    {
      "inputs": [
        {
          "internalType": "uint256",
          "name": "tokenId",
          "type": "uint256"
        }
      ],
      "name": "getApproved",
      "outputs": [
        {
          "internalType": "address",
          "name": "",
          "type": "address"
        }
      ],
      "stateMutability": "view",
      "type": "function",
      "constant": true
    },
    {
      "inputs": [
        {
          "internalType": "address",
          "name": "owner",
          "type": "address"
        },
        {
          "internalType": "address",
          "name": "operator",
          "type": "address"
        }
      ],
      "name": "isApprovedForAll",
      "outputs": [
        {
          "internalType": "bool",
          "name": "",
          "type": "bool"
        }
      ],
      "stateMutability": "view",
      "type": "function",
      "constant": true
    },
    {
      "inputs": [],
      "name": "name",
      "outputs": [
        {
          "internalType": "string",
          "name": "",
          "type": "string"
        }
      ],
      "stateMutability": "view",
      "type": "function",
      "constant": true
    },
    {
      "inputs": [
        {
          "internalType": "uint256",
          "name": "tokenId",
          "type": "uint256"
        }
      ],
      "name": "ownerOf",
      "outputs": [
        {
          "internalType": "address",
          "name": "",
          "type": "address"
        }
      ],
      "stateMutability": "view",
      "type": "function",
      "constant": true
    },
    {
      "inputs": [
        {
          "internalType": "address",
          "name": "from",
          "type": "address"
        },
        {
          "internalType": "address",
          "name": "to",
          "type": "address"
        },
        {
          "internalType": "uint256",
          "name": "tokenId",
          "type": "uint256"
        }
      ],
      "name": "safeTransferFrom",
      "outputs": [],
      "stateMutability": "nonpayable",
      "type": "function"
    },
    {
      "inputs": [
        {
          "internalType": "address",
          "name": "from",
          "type": "address"
        },
        {
          "internalType": "address",
          "name": "to",
          "type": "address"
        },
        {
          "internalType": "uint256",
          "name": "tokenId",
          "type": "uint256"
        },
        {
          "internalType": "bytes",
          "name": "_data",
          "type": "bytes"
        }
      ],
      "name": "safeTransferFrom",
      "outputs": [],
      "stateMutability": "nonpayable",
      "type": "function"
    },
    {
      "inputs": [
        {
          "internalType": "address",
          "name": "operator",
          "type": "address"
        },
        {
          "internalType": "bool",
          "name": "approved",
          "type": "bool"
        }
      ],
      "name": "setApprovalForAll",
      "outputs": [],
      "stateMutability": "nonpayable",
      "type": "function"
    },
    {
      "inputs": [
        {
          "internalType": "bytes4",
          "name": "interfaceId",
          "type": "bytes4"
        }
      ],
      "name": "supportsInterface",
      "outputs": [
        {
          "internalType": "bool",
          "name": "",
          "type": "bool"
        }
      ],
      "stateMutability": "view",
      "type": "function",
      "constant": true
    },
    {
      "inputs": [],
      "name": "symbol",
      "outputs": [
        {
          "internalType": "string",
          "name": "",
          "type": "string"
        }
      ],
      "stateMutability": "view",
      "type": "function",
      "constant": true
    },
    {
      "inputs": [
        {
          "internalType": "uint256",
          "name": "tokenId",
          "type": "uint256"
        }
      ],
      "name": "tokenURI",
      "outputs": [
        {
          "internalType": "string",
          "name": "",
          "type": "string"
        }
      ],
      "stateMutability": "view",
      "type": "function",
      "constant": true
    },
    {
      "inputs": [
        {
          "internalType": "address",
          "name": "from",
          "type": "address"
        },
        {
          "internalType": "address",
          "name": "to",
          "type": "address"
        },
        {
          "internalType": "uint256",
          "name": "tokenId",
          "type": "uint256"
        }
      ],
      "name": "transferFrom",
      "outputs": [],
      "stateMutability": "nonpayable",
      "type": "function"
    },
    {
      "inputs": [
        {
          "internalType": "address",
          "name": "owner",
          "type": "address"
        },
        {
          "internalType": "string",
          "name": "uri",
          "type": "string"
        },
        {
          "internalType": "string",
          "name": "name",
          "type": "string"
        }
      ],
      "name": "createToken",
      "outputs": [],
      "stateMutability": "nonpayable",
      "type": "function"
    },
    {
      "inputs": [
        {
          "internalType": "uint256",
          "name": "token_ID",
          "type": "uint256"
        },
        {
          "internalType": "address",
          "name": "from",
          "type": "address"
        },
        {
          "internalType": "address",
          "name": "to",
          "type": "address"
        }
      ],
      "name": "transferToken",
      "outputs": [],
      "stateMutability": "nonpayable",
      "type": "function"
    },
    {
      "inputs": [
        {
          "internalType": "uint256",
          "name": "token_ID",
          "type": "uint256"
        }
      ],
      "name": "setOnSale",
      "outputs": [],
      "stateMutability": "nonpayable",
      "type": "function"
    },
    {
      "inputs": [
        {
          "internalType": "uint256",
          "name": "token_ID",
          "type": "uint256"
        }
      ],
      "name": "setNotOnSale",
      "outputs": [],
      "stateMutability": "nonpayable",
      "type": "function"
    },
    {
      "inputs": [],
      "name": "allNFTs",
      "outputs": [
        {
          "components": [
            {
              "internalType": "address",
              "name": "owner",
              "type": "address"
            },
            {
              "internalType": "address",
              "name": "minter",
              "type": "address"
            },
            {
              "internalType": "address",
              "name": "previous_owner",
              "type": "address"
            },
            {
              "internalType": "uint256",
              "name": "token_ID",
              "type": "uint256"
            },
            {
              "internalType": "string",
              "name": "name",
              "type": "string"
            },
            {
              "internalType": "bool",
              "name": "onSale",
              "type": "bool"
            },
            {
              "internalType": "string",
              "name": "URI",
              "type": "string"
            }
          ],
          "internalType": "struct NFTManage.NFT[]",
          "name": "",
          "type": "tuple[]"
        }
      ],
      "stateMutability": "view",
      "type": "function",
      "constant": true
    },
    {
      "inputs": [
        {
          "internalType": "uint256",
          "name": "token_ID",
          "type": "uint256"
        }
      ],
      "name": "LookUpURI",
      "outputs": [
        {
          "internalType": "string",
          "name": "",
          "type": "string"
        }
      ],
      "stateMutability": "view",
      "type": "function",
      "constant": true
    },
    {
      "inputs": [
        {
          "internalType": "uint256",
          "name": "token_ID",
          "type": "uint256"
        }
      ],
      "name": "LookUpStatus",
      "outputs": [
        {
          "internalType": "bool",
          "name": "",
          "type": "bool"
        }
      ],
      "stateMutability": "view",
      "type": "function",
      "constant": true
    }
  ],
  "bytecode": "0x60806040523480156200001157600080fd5b506040518060400160405280600981526020017f4e46544d616e61676500000000000000000000000000000000000000000000008152506040518060400160405280600381526020017f4e46540000000000000000000000000000000000000000000000000000000000815250816000908051906020019062000096929190620000b8565b508060019080519060200190620000af929190620000b8565b505050620001cd565b828054620000c69062000197565b90600052602060002090601f016020900481019282620000ea576000855562000136565b82601f106200010557805160ff191683800117855562000136565b8280016001018555821562000136579182015b828111156200013557825182559160200191906001019062000118565b5b50905062000145919062000149565b5090565b5b80821115620001645760008160009055506001016200014a565b5090565b7f4e487b7100000000000000000000000000000000000000000000000000000000600052602260045260246000fd5b60006002820490506001821680620001b057607f821691505b60208210811415620001c757620001c662000168565b5b50919050565b613b6180620001dd6000396000f3fe608060405234801561001057600080fd5b50600436106101375760003560e01c806395d89b41116100b8578063c87b56dd1161007c578063c87b56dd14610364578063d4916d0814610394578063d4c6a3c1146103b0578063e985e9c5146103cc578063f5c4a3eb146103fc578063ff78c1921461041857610137565b806395d89b41146102a85780639a72ca8f146102c6578063a22cb465146102f6578063a3c0b95b14610312578063b88d4fde1461034857610137565b806342842e0e116100ff57806342842e0e146101f25780634a2a1fb01461020e5780636352211e1461022a5780636cab876f1461025a57806370a082311461027857610137565b806301ffc9a71461013c57806306fdde031461016c578063081812fc1461018a578063095ea7b3146101ba57806323b872dd146101d6575b600080fd5b61015660048036038101906101519190612566565b610448565b60405161016391906125ae565b60405180910390f35b61017461052a565b6040516101819190612662565b60405180910390f35b6101a4600480360381019061019f91906126ba565b6105bc565b6040516101b19190612728565b60405180910390f35b6101d460048036038101906101cf919061276f565b610641565b005b6101f060048036038101906101eb91906127af565b610759565b005b61020c600480360381019061020791906127af565b6107b9565b005b61022860048036038101906102239190612802565b6107d9565b005b610244600480360381019061023f91906126ba565b61097e565b6040516102519190612728565b60405180910390f35b610262610a30565b60405161026f9190612a31565b60405180910390f35b610292600480360381019061028d9190612a53565b610cda565b60405161029f9190612a8f565b60405180910390f35b6102b0610d92565b6040516102bd9190612662565b60405180910390f35b6102e060048036038101906102db91906126ba565b610e24565b6040516102ed9190612662565b60405180910390f35b610310600480360381019061030b9190612ad6565b610edb565b005b61032c600480360381019061032791906126ba565b61105c565b60405161033f9796959493929190612b16565b60405180910390f35b610362600480360381019061035d9190612cc8565b61122b565b005b61037e600480360381019061037991906126ba565b61128d565b60405161038b9190612662565b60405180910390f35b6103ae60048036038101906103a991906126ba565b6113df565b005b6103ca60048036038101906103c59190612dec565b6114ac565b005b6103e660048036038101906103e19190612e77565b611704565b6040516103f391906125ae565b60405180910390f35b610416600480360381019061041191906126ba565b611798565b005b610432600480360381019061042d91906126ba565b611865565b60405161043f91906125ae565b60405180910390f35b60007f80ac58cd000000000000000000000000000000000000000000000000000000007bffffffffffffffffffffffffffffffffffffffffffffffffffffffff1916827bffffffffffffffffffffffffffffffffffffffffffffffffffffffff1916148061051357507f5b5e139f000000000000000000000000000000000000000000000000000000007bffffffffffffffffffffffffffffffffffffffffffffffffffffffff1916827bffffffffffffffffffffffffffffffffffffffffffffffffffffffff1916145b806105235750610522826118a1565b5b9050919050565b60606000805461053990612ee6565b80601f016020809104026020016040519081016040528092919081815260200182805461056590612ee6565b80156105b25780601f10610587576101008083540402835291602001916105b2565b820191906000526020600020905b81548152906001019060200180831161059557829003601f168201915b5050505050905090565b60006105c78261190b565b610606576040517f08c379a00000000000000000000000000000000000000000000000000000000081526004016105fd90612f8a565b60405180910390fd5b6004600083815260200190815260200160002060009054906101000a900473ffffffffffffffffffffffffffffffffffffffff169050919050565b600061064c8261097e565b90508073ffffffffffffffffffffffffffffffffffffffff168373ffffffffffffffffffffffffffffffffffffffff1614156106bd576040517f08c379a00000000000000000000000000000000000000000000000000000000081526004016106b49061301c565b60405180910390fd5b8073ffffffffffffffffffffffffffffffffffffffff166106dc611977565b73ffffffffffffffffffffffffffffffffffffffff16148061070b575061070a81610705611977565b611704565b5b61074a576040517f08c379a0000000000000000000000000000000000000000000000000000000008152600401610741906130ae565b60405180910390fd5b610754838361197f565b505050565b61076a610764611977565b82611a38565b6107a9576040517f08c379a00000000000000000000000000000000000000000000000000000000081526004016107a090613140565b60405180910390fd5b6107b4838383611b16565b505050565b6107d48383836040518060200160405280600081525061122b565b505050565b6008548311156107e857600080fd5b6107f38282856107b9565b6007838154811061080757610806613160565b5b906000526020600020906007020160000160009054906101000a900473ffffffffffffffffffffffffffffffffffffffff166007848154811061084d5761084c613160565b5b906000526020600020906007020160020160006101000a81548173ffffffffffffffffffffffffffffffffffffffff021916908373ffffffffffffffffffffffffffffffffffffffff16021790555080600784815481106108b1576108b0613160565b5b906000526020600020906007020160000160006101000a81548173ffffffffffffffffffffffffffffffffffffffff021916908373ffffffffffffffffffffffffffffffffffffffff16021790555060006007848154811061091657610915613160565b5b906000526020600020906007020160050160006101000a81548160ff0219169083151502179055507f0e268738ea50506f2532be89efbf6844e968150a98930a73313bf985dd2d8cee8383836040516109719392919061318f565b60405180910390a1505050565b6000806002600084815260200190815260200160002060009054906101000a900473ffffffffffffffffffffffffffffffffffffffff169050600073ffffffffffffffffffffffffffffffffffffffff168173ffffffffffffffffffffffffffffffffffffffff161415610a27576040517f08c379a0000000000000000000000000000000000000000000000000000000008152600401610a1e90613238565b60405180910390fd5b80915050919050565b60606007805480602002602001604051908101604052809291908181526020016000905b82821015610cd157838290600052602060002090600702016040518060e00160405290816000820160009054906101000a900473ffffffffffffffffffffffffffffffffffffffff1673ffffffffffffffffffffffffffffffffffffffff1673ffffffffffffffffffffffffffffffffffffffff1681526020016001820160009054906101000a900473ffffffffffffffffffffffffffffffffffffffff1673ffffffffffffffffffffffffffffffffffffffff1673ffffffffffffffffffffffffffffffffffffffff1681526020016002820160009054906101000a900473ffffffffffffffffffffffffffffffffffffffff1673ffffffffffffffffffffffffffffffffffffffff1673ffffffffffffffffffffffffffffffffffffffff16815260200160038201548152602001600482018054610b9390612ee6565b80601f0160208091040260200160405190810160405280929190818152602001828054610bbf90612ee6565b8015610c0c5780601f10610be157610100808354040283529160200191610c0c565b820191906000526020600020905b815481529060010190602001808311610bef57829003601f168201915b505050505081526020016005820160009054906101000a900460ff16151515158152602001600682018054610c4090612ee6565b80601f0160208091040260200160405190810160405280929190818152602001828054610c6c90612ee6565b8015610cb95780601f10610c8e57610100808354040283529160200191610cb9565b820191906000526020600020905b815481529060010190602001808311610c9c57829003601f168201915b50505050508152505081526020019060010190610a54565b50505050905090565b60008073ffffffffffffffffffffffffffffffffffffffff168273ffffffffffffffffffffffffffffffffffffffff161415610d4b576040517f08c379a0000000000000000000000000000000000000000000000000000000008152600401610d42906132ca565b60405180910390fd5b600360008373ffffffffffffffffffffffffffffffffffffffff1673ffffffffffffffffffffffffffffffffffffffff168152602001908152602001600020549050919050565b606060018054610da190612ee6565b80601f0160208091040260200160405190810160405280929190818152602001828054610dcd90612ee6565b8015610e1a5780601f10610def57610100808354040283529160200191610e1a565b820191906000526020600020905b815481529060010190602001808311610dfd57829003601f168201915b5050505050905090565b606060078281548110610e3a57610e39613160565b5b90600052602060002090600702016006018054610e5690612ee6565b80601f0160208091040260200160405190810160405280929190818152602001828054610e8290612ee6565b8015610ecf5780601f10610ea457610100808354040283529160200191610ecf565b820191906000526020600020905b815481529060010190602001808311610eb257829003601f168201915b50505050509050919050565b610ee3611977565b73ffffffffffffffffffffffffffffffffffffffff168273ffffffffffffffffffffffffffffffffffffffff161415610f51576040517f08c379a0000000000000000000000000000000000000000000000000000000008152600401610f4890613336565b60405180910390fd5b8060056000610f5e611977565b73ffffffffffffffffffffffffffffffffffffffff1673ffffffffffffffffffffffffffffffffffffffff16815260200190815260200160002060008473ffffffffffffffffffffffffffffffffffffffff1673ffffffffffffffffffffffffffffffffffffffff16815260200190815260200160002060006101000a81548160ff0219169083151502179055508173ffffffffffffffffffffffffffffffffffffffff1661100b611977565b73ffffffffffffffffffffffffffffffffffffffff167f17307eab39ab6107e8899845ad3d59bd9653f200f220920489ca2b5937696c318360405161105091906125ae565b60405180910390a35050565b6007818154811061106c57600080fd5b90600052602060002090600702016000915090508060000160009054906101000a900473ffffffffffffffffffffffffffffffffffffffff16908060010160009054906101000a900473ffffffffffffffffffffffffffffffffffffffff16908060020160009054906101000a900473ffffffffffffffffffffffffffffffffffffffff169080600301549080600401805461110790612ee6565b80601f016020809104026020016040519081016040528092919081815260200182805461113390612ee6565b80156111805780601f1061115557610100808354040283529160200191611180565b820191906000526020600020905b81548152906001019060200180831161116357829003601f168201915b5050505050908060050160009054906101000a900460ff16908060060180546111a890612ee6565b80601f01602080910402602001604051908101604052809291908181526020018280546111d490612ee6565b80156112215780601f106111f657610100808354040283529160200191611221565b820191906000526020600020905b81548152906001019060200180831161120457829003601f168201915b5050505050905087565b61123c611236611977565b83611a38565b61127b576040517f08c379a000000000000000000000000000000000000000000000000000000000815260040161127290613140565b60405180910390fd5b61128784848484611d72565b50505050565b60606112988261190b565b6112d7576040517f08c379a00000000000000000000000000000000000000000000000000000000081526004016112ce906133c8565b60405180910390fd5b60006006600084815260200190815260200160002080546112f790612ee6565b80601f016020809104026020016040519081016040528092919081815260200182805461132390612ee6565b80156113705780601f1061134557610100808354040283529160200191611370565b820191906000526020600020905b81548152906001019060200180831161135357829003601f168201915b505050505090506000611381611dce565b90506000815114156113975781925050506113da565b6000825111156113cc5780826040516020016113b4929190613424565b604051602081830303815290604052925050506113da565b6113d584611de5565b925050505b919050565b6008548111156113ee57600080fd5b6007818154811061140257611401613160565b5b906000526020600020906007020160000160009054906101000a900473ffffffffffffffffffffffffffffffffffffffff1673ffffffffffffffffffffffffffffffffffffffff163373ffffffffffffffffffffffffffffffffffffffff161461146b57600080fd5b60016007828154811061148157611480613160565b5b906000526020600020906007020160050160006101000a81548160ff02191690831515021790555050565b6114b883600854611e8c565b6114c460085483611eaa565b60006040518060e001604052808573ffffffffffffffffffffffffffffffffffffffff1681526020018573ffffffffffffffffffffffffffffffffffffffff1681526020018573ffffffffffffffffffffffffffffffffffffffff1681526020016008548152602001838152602001600015158152602001848152509050600781908060018154018082558091505060019003906000526020600020906007020160009091909190915060008201518160000160006101000a81548173ffffffffffffffffffffffffffffffffffffffff021916908373ffffffffffffffffffffffffffffffffffffffff16021790555060208201518160010160006101000a81548173ffffffffffffffffffffffffffffffffffffffff021916908373ffffffffffffffffffffffffffffffffffffffff16021790555060408201518160020160006101000a81548173ffffffffffffffffffffffffffffffffffffffff021916908373ffffffffffffffffffffffffffffffffffffffff160217905550606082015181600301556080820151816004019080519060200190611669929190612457565b5060a08201518160050160006101000a81548160ff02191690831515021790555060c08201518160060190805190602001906116a6929190612457565b5050506001600860008282546116bc9190613477565b925050819055507f1cef2b4ec7f129e441c961eb4fae22fd3131868db6be990c6f065f35b6b53cf3846008546040516116f69291906134cd565b60405180910390a150505050565b6000600560008473ffffffffffffffffffffffffffffffffffffffff1673ffffffffffffffffffffffffffffffffffffffff16815260200190815260200160002060008373ffffffffffffffffffffffffffffffffffffffff1673ffffffffffffffffffffffffffffffffffffffff16815260200190815260200160002060009054906101000a900460ff16905092915050565b6008548111156117a757600080fd5b600781815481106117bb576117ba613160565b5b906000526020600020906007020160000160009054906101000a900473ffffffffffffffffffffffffffffffffffffffff1673ffffffffffffffffffffffffffffffffffffffff163373ffffffffffffffffffffffffffffffffffffffff161461182457600080fd5b60006007828154811061183a57611839613160565b5b906000526020600020906007020160050160006101000a81548160ff02191690831515021790555050565b60006007828154811061187b5761187a613160565b5b906000526020600020906007020160050160009054906101000a900460ff169050919050565b60007f01ffc9a7000000000000000000000000000000000000000000000000000000007bffffffffffffffffffffffffffffffffffffffffffffffffffffffff1916827bffffffffffffffffffffffffffffffffffffffffffffffffffffffff1916149050919050565b60008073ffffffffffffffffffffffffffffffffffffffff166002600084815260200190815260200160002060009054906101000a900473ffffffffffffffffffffffffffffffffffffffff1673ffffffffffffffffffffffffffffffffffffffff1614159050919050565b600033905090565b816004600083815260200190815260200160002060006101000a81548173ffffffffffffffffffffffffffffffffffffffff021916908373ffffffffffffffffffffffffffffffffffffffff160217905550808273ffffffffffffffffffffffffffffffffffffffff166119f28361097e565b73ffffffffffffffffffffffffffffffffffffffff167f8c5be1e5ebec7d5bd14f71427d1e84f3dd0314c0f7b2291e5b200ac8c7c3b92560405160405180910390a45050565b6000611a438261190b565b611a82576040517f08c379a0000000000000000000000000000000000000000000000000000000008152600401611a7990613568565b60405180910390fd5b6000611a8d8361097e565b90508073ffffffffffffffffffffffffffffffffffffffff168473ffffffffffffffffffffffffffffffffffffffff161480611afc57508373ffffffffffffffffffffffffffffffffffffffff16611ae4846105bc565b73ffffffffffffffffffffffffffffffffffffffff16145b80611b0d5750611b0c8185611704565b5b91505092915050565b8273ffffffffffffffffffffffffffffffffffffffff16611b368261097e565b73ffffffffffffffffffffffffffffffffffffffff1614611b8c576040517f08c379a0000000000000000000000000000000000000000000000000000000008152600401611b83906135fa565b60405180910390fd5b600073ffffffffffffffffffffffffffffffffffffffff168273ffffffffffffffffffffffffffffffffffffffff161415611bfc576040517f08c379a0000000000000000000000000000000000000000000000000000000008152600401611bf39061368c565b60405180910390fd5b611c07838383611f1e565b611c1260008261197f565b6001600360008573ffffffffffffffffffffffffffffffffffffffff1673ffffffffffffffffffffffffffffffffffffffff1681526020019081526020016000206000828254611c6291906136ac565b925050819055506001600360008473ffffffffffffffffffffffffffffffffffffffff1673ffffffffffffffffffffffffffffffffffffffff1681526020019081526020016000206000828254611cb99190613477565b92505081905550816002600083815260200190815260200160002060006101000a81548173ffffffffffffffffffffffffffffffffffffffff021916908373ffffffffffffffffffffffffffffffffffffffff160217905550808273ffffffffffffffffffffffffffffffffffffffff168473ffffffffffffffffffffffffffffffffffffffff167fddf252ad1be2c89b69c2b068fc378daa952ba7f163c4a11628f55a4df523b3ef60405160405180910390a4505050565b611d7d848484611b16565b611d8984848484611f23565b611dc8576040517f08c379a0000000000000000000000000000000000000000000000000000000008152600401611dbf90613752565b60405180910390fd5b50505050565b606060405180602001604052806000815250905090565b6060611df08261190b565b611e2f576040517f08c379a0000000000000000000000000000000000000000000000000000000008152600401611e26906137e4565b60405180910390fd5b6000611e39611dce565b90506000815111611e595760405180602001604052806000815250611e84565b80611e63846120ba565b604051602001611e74929190613424565b6040516020818303038152906040525b915050919050565b611ea682826040518060200160405280600081525061221b565b5050565b611eb38261190b565b611ef2576040517f08c379a0000000000000000000000000000000000000000000000000000000008152600401611ee990613876565b60405180910390fd5b80600660008481526020019081526020016000209080519060200190611f19929190612457565b505050565b505050565b6000611f448473ffffffffffffffffffffffffffffffffffffffff16612276565b156120ad578373ffffffffffffffffffffffffffffffffffffffff1663150b7a02611f6d611977565b8786866040518563ffffffff1660e01b8152600401611f8f94939291906138eb565b602060405180830381600087803b158015611fa957600080fd5b505af1925050508015611fda57506040513d601f19601f82011682018060405250810190611fd7919061394c565b60015b61205d573d806000811461200a576040519150601f19603f3d011682016040523d82523d6000602084013e61200f565b606091505b50600081511415612055576040517f08c379a000000000000000000000000000000000000000000000000000000000815260040161204c90613752565b60405180910390fd5b805181602001fd5b63150b7a0260e01b7bffffffffffffffffffffffffffffffffffffffffffffffffffffffff1916817bffffffffffffffffffffffffffffffffffffffffffffffffffffffff1916149150506120b2565b600190505b949350505050565b60606000821415612102576040518060400160405280600181526020017f30000000000000000000000000000000000000000000000000000000000000008152509050612216565b600082905060005b6000821461213457808061211d90613979565b915050600a8261212d91906139f1565b915061210a565b60008167ffffffffffffffff8111156121505761214f612b9d565b5b6040519080825280601f01601f1916602001820160405280156121825781602001600182028036833780820191505090505b5090505b6000851461220f5760018261219b91906136ac565b9150600a856121aa9190613a22565b60306121b69190613477565b60f81b8183815181106121cc576121cb613160565b5b60200101907effffffffffffffffffffffffffffffffffffffffffffffffffffffffffffff1916908160001a905350600a8561220891906139f1565b9450612186565b8093505050505b919050565b6122258383612289565b6122326000848484611f23565b612271576040517f08c379a000000000000000000000000000000000000000000000000000000000815260040161226890613752565b60405180910390fd5b505050565b600080823b905060008111915050919050565b600073ffffffffffffffffffffffffffffffffffffffff168273ffffffffffffffffffffffffffffffffffffffff1614156122f9576040517f08c379a00000000000000000000000000000000000000000000000000000000081526004016122f090613a9f565b60405180910390fd5b6123028161190b565b15612342576040517f08c379a000000000000000000000000000000000000000000000000000000000815260040161233990613b0b565b60405180910390fd5b61234e60008383611f1e565b6001600360008473ffffffffffffffffffffffffffffffffffffffff1673ffffffffffffffffffffffffffffffffffffffff168152602001908152602001600020600082825461239e9190613477565b92505081905550816002600083815260200190815260200160002060006101000a81548173ffffffffffffffffffffffffffffffffffffffff021916908373ffffffffffffffffffffffffffffffffffffffff160217905550808273ffffffffffffffffffffffffffffffffffffffff16600073ffffffffffffffffffffffffffffffffffffffff167fddf252ad1be2c89b69c2b068fc378daa952ba7f163c4a11628f55a4df523b3ef60405160405180910390a45050565b82805461246390612ee6565b90600052602060002090601f01602090048101928261248557600085556124cc565b82601f1061249e57805160ff19168380011785556124cc565b828001600101855582156124cc579182015b828111156124cb5782518255916020019190600101906124b0565b5b5090506124d991906124dd565b5090565b5b808211156124f65760008160009055506001016124de565b5090565b6000604051905090565b600080fd5b600080fd5b60007fffffffff0000000000000000000000000000000000000000000000000000000082169050919050565b6125438161250e565b811461254e57600080fd5b50565b6000813590506125608161253a565b92915050565b60006020828403121561257c5761257b612504565b5b600061258a84828501612551565b91505092915050565b60008115159050919050565b6125a881612593565b82525050565b60006020820190506125c3600083018461259f565b92915050565b600081519050919050565b600082825260208201905092915050565b60005b838110156126035780820151818401526020810190506125e8565b83811115612612576000848401525b50505050565b6000601f19601f8301169050919050565b6000612634826125c9565b61263e81856125d4565b935061264e8185602086016125e5565b61265781612618565b840191505092915050565b6000602082019050818103600083015261267c8184612629565b905092915050565b6000819050919050565b61269781612684565b81146126a257600080fd5b50565b6000813590506126b48161268e565b92915050565b6000602082840312156126d0576126cf612504565b5b60006126de848285016126a5565b91505092915050565b600073ffffffffffffffffffffffffffffffffffffffff82169050919050565b6000612712826126e7565b9050919050565b61272281612707565b82525050565b600060208201905061273d6000830184612719565b92915050565b61274c81612707565b811461275757600080fd5b50565b60008135905061276981612743565b92915050565b6000806040838503121561278657612785612504565b5b60006127948582860161275a565b92505060206127a5858286016126a5565b9150509250929050565b6000806000606084860312156127c8576127c7612504565b5b60006127d68682870161275a565b93505060206127e78682870161275a565b92505060406127f8868287016126a5565b9150509250925092565b60008060006060848603121561281b5761281a612504565b5b6000612829868287016126a5565b935050602061283a8682870161275a565b925050604061284b8682870161275a565b9150509250925092565b600081519050919050565b600082825260208201905092915050565b6000819050602082019050919050565b61288a81612707565b82525050565b61289981612684565b82525050565b600082825260208201905092915050565b60006128bb826125c9565b6128c5818561289f565b93506128d58185602086016125e5565b6128de81612618565b840191505092915050565b6128f281612593565b82525050565b600060e0830160008301516129106000860182612881565b5060208301516129236020860182612881565b5060408301516129366040860182612881565b5060608301516129496060860182612890565b506080830151848203608086015261296182826128b0565b91505060a083015161297660a08601826128e9565b5060c083015184820360c086015261298e82826128b0565b9150508091505092915050565b60006129a783836128f8565b905092915050565b6000602082019050919050565b60006129c782612855565b6129d18185612860565b9350836020820285016129e385612871565b8060005b85811015612a1f5784840389528151612a00858261299b565b9450612a0b836129af565b925060208a019950506001810190506129e7565b50829750879550505050505092915050565b60006020820190508181036000830152612a4b81846129bc565b905092915050565b600060208284031215612a6957612a68612504565b5b6000612a778482850161275a565b91505092915050565b612a8981612684565b82525050565b6000602082019050612aa46000830184612a80565b92915050565b612ab381612593565b8114612abe57600080fd5b50565b600081359050612ad081612aaa565b92915050565b60008060408385031215612aed57612aec612504565b5b6000612afb8582860161275a565b9250506020612b0c85828601612ac1565b9150509250929050565b600060e082019050612b2b600083018a612719565b612b386020830189612719565b612b456040830188612719565b612b526060830187612a80565b8181036080830152612b648186612629565b9050612b7360a083018561259f565b81810360c0830152612b858184612629565b905098975050505050505050565b600080fd5b600080fd5b7f4e487b7100000000000000000000000000000000000000000000000000000000600052604160045260246000fd5b612bd582612618565b810181811067ffffffffffffffff82111715612bf457612bf3612b9d565b5b80604052505050565b6000612c076124fa565b9050612c138282612bcc565b919050565b600067ffffffffffffffff821115612c3357612c32612b9d565b5b612c3c82612618565b9050602081019050919050565b82818337600083830152505050565b6000612c6b612c6684612c18565b612bfd565b905082815260208101848484011115612c8757612c86612b98565b5b612c92848285612c49565b509392505050565b600082601f830112612caf57612cae612b93565b5b8135612cbf848260208601612c58565b91505092915050565b60008060008060808587031215612ce257612ce1612504565b5b6000612cf08782880161275a565b9450506020612d018782880161275a565b9350506040612d12878288016126a5565b925050606085013567ffffffffffffffff811115612d3357612d32612509565b5b612d3f87828801612c9a565b91505092959194509250565b600067ffffffffffffffff821115612d6657612d65612b9d565b5b612d6f82612618565b9050602081019050919050565b6000612d8f612d8a84612d4b565b612bfd565b905082815260208101848484011115612dab57612daa612b98565b5b612db6848285612c49565b509392505050565b600082601f830112612dd357612dd2612b93565b5b8135612de3848260208601612d7c565b91505092915050565b600080600060608486031215612e0557612e04612504565b5b6000612e138682870161275a565b935050602084013567ffffffffffffffff811115612e3457612e33612509565b5b612e4086828701612dbe565b925050604084013567ffffffffffffffff811115612e6157612e60612509565b5b612e6d86828701612dbe565b9150509250925092565b60008060408385031215612e8e57612e8d612504565b5b6000612e9c8582860161275a565b9250506020612ead8582860161275a565b9150509250929050565b7f4e487b7100000000000000000000000000000000000000000000000000000000600052602260045260246000fd5b60006002820490506001821680612efe57607f821691505b60208210811415612f1257612f11612eb7565b5b50919050565b7f4552433732313a20617070726f76656420717565727920666f72206e6f6e657860008201527f697374656e7420746f6b656e0000000000000000000000000000000000000000602082015250565b6000612f74602c836125d4565b9150612f7f82612f18565b604082019050919050565b60006020820190508181036000830152612fa381612f67565b9050919050565b7f4552433732313a20617070726f76616c20746f2063757272656e74206f776e6560008201527f7200000000000000000000000000000000000000000000000000000000000000602082015250565b60006130066021836125d4565b915061301182612faa565b604082019050919050565b6000602082019050818103600083015261303581612ff9565b9050919050565b7f4552433732313a20617070726f76652063616c6c6572206973206e6f74206f7760008201527f6e6572206e6f7220617070726f76656420666f7220616c6c0000000000000000602082015250565b60006130986038836125d4565b91506130a38261303c565b604082019050919050565b600060208201905081810360008301526130c78161308b565b9050919050565b7f4552433732313a207472616e736665722063616c6c6572206973206e6f74206f60008201527f776e6572206e6f7220617070726f766564000000000000000000000000000000602082015250565b600061312a6031836125d4565b9150613135826130ce565b604082019050919050565b600060208201905081810360008301526131598161311d565b9050919050565b7f4e487b7100000000000000000000000000000000000000000000000000000000600052603260045260246000fd5b60006060820190506131a46000830186612a80565b6131b16020830185612719565b6131be6040830184612719565b949350505050565b7f4552433732313a206f776e657220717565727920666f72206e6f6e657869737460008201527f656e7420746f6b656e0000000000000000000000000000000000000000000000602082015250565b60006132226029836125d4565b915061322d826131c6565b604082019050919050565b6000602082019050818103600083015261325181613215565b9050919050565b7f4552433732313a2062616c616e636520717565727920666f7220746865207a6560008201527f726f206164647265737300000000000000000000000000000000000000000000602082015250565b60006132b4602a836125d4565b91506132bf82613258565b604082019050919050565b600060208201905081810360008301526132e3816132a7565b9050919050565b7f4552433732313a20617070726f766520746f2063616c6c657200000000000000600082015250565b60006133206019836125d4565b915061332b826132ea565b602082019050919050565b6000602082019050818103600083015261334f81613313565b9050919050565b7f45524337323155524953746f726167653a2055524920717565727920666f722060008201527f6e6f6e6578697374656e7420746f6b656e000000000000000000000000000000602082015250565b60006133b26031836125d4565b91506133bd82613356565b604082019050919050565b600060208201905081810360008301526133e1816133a5565b9050919050565b600081905092915050565b60006133fe826125c9565b61340881856133e8565b93506134188185602086016125e5565b80840191505092915050565b600061343082856133f3565b915061343c82846133f3565b91508190509392505050565b7f4e487b7100000000000000000000000000000000000000000000000000000000600052601160045260246000fd5b600061348282612684565b915061348d83612684565b9250827fffffffffffffffffffffffffffffffffffffffffffffffffffffffffffffffff038211156134c2576134c1613448565b5b828201905092915050565b60006040820190506134e26000830185612719565b6134ef6020830184612a80565b9392505050565b7f4552433732313a206f70657261746f7220717565727920666f72206e6f6e657860008201527f697374656e7420746f6b656e0000000000000000000000000000000000000000602082015250565b6000613552602c836125d4565b915061355d826134f6565b604082019050919050565b6000602082019050818103600083015261358181613545565b9050919050565b7f4552433732313a207472616e73666572206f6620746f6b656e2074686174206960008201527f73206e6f74206f776e0000000000000000000000000000000000000000000000602082015250565b60006135e46029836125d4565b91506135ef82613588565b604082019050919050565b60006020820190508181036000830152613613816135d7565b9050919050565b7f4552433732313a207472616e7366657220746f20746865207a65726f2061646460008201527f7265737300000000000000000000000000000000000000000000000000000000602082015250565b60006136766024836125d4565b91506136818261361a565b604082019050919050565b600060208201905081810360008301526136a581613669565b9050919050565b60006136b782612684565b91506136c283612684565b9250828210156136d5576136d4613448565b5b828203905092915050565b7f4552433732313a207472616e7366657220746f206e6f6e20455243373231526560008201527f63656976657220696d706c656d656e7465720000000000000000000000000000602082015250565b600061373c6032836125d4565b9150613747826136e0565b604082019050919050565b6000602082019050818103600083015261376b8161372f565b9050919050565b7f4552433732314d657461646174613a2055524920717565727920666f72206e6f60008201527f6e6578697374656e7420746f6b656e0000000000000000000000000000000000602082015250565b60006137ce602f836125d4565b91506137d982613772565b604082019050919050565b600060208201905081810360008301526137fd816137c1565b9050919050565b7f45524337323155524953746f726167653a2055524920736574206f66206e6f6e60008201527f6578697374656e7420746f6b656e000000000000000000000000000000000000602082015250565b6000613860602e836125d4565b915061386b82613804565b604082019050919050565b6000602082019050818103600083015261388f81613853565b9050919050565b600081519050919050565b600082825260208201905092915050565b60006138bd82613896565b6138c781856138a1565b93506138d78185602086016125e5565b6138e081612618565b840191505092915050565b60006080820190506139006000830187612719565b61390d6020830186612719565b61391a6040830185612a80565b818103606083015261392c81846138b2565b905095945050505050565b6000815190506139468161253a565b92915050565b60006020828403121561396257613961612504565b5b600061397084828501613937565b91505092915050565b600061398482612684565b91507fffffffffffffffffffffffffffffffffffffffffffffffffffffffffffffffff8214156139b7576139b6613448565b5b600182019050919050565b7f4e487b7100000000000000000000000000000000000000000000000000000000600052601260045260246000fd5b60006139fc82612684565b9150613a0783612684565b925082613a1757613a166139c2565b5b828204905092915050565b6000613a2d82612684565b9150613a3883612684565b925082613a4857613a476139c2565b5b828206905092915050565b7f4552433732313a206d696e7420746f20746865207a65726f2061646472657373600082015250565b6000613a896020836125d4565b9150613a9482613a53565b602082019050919050565b60006020820190508181036000830152613ab881613a7c565b9050919050565b7f4552433732313a20746f6b656e20616c7265616479206d696e74656400000000600082015250565b6000613af5601c836125d4565b9150613b0082613abf565b602082019050919050565b60006020820190508181036000830152613b2481613ae8565b905091905056fea2646970667358221220e8b11ff0f16c65e6dabd80462724befea8a166ba98291549df5f9dc4ca519a6f64736f6c63430008090033",
  "immutableReferences": {},
  "source": "// SPDX-License-Identifier: MIT\npragma solidity ^0.8.0;\n\n//import \"@openzeppelin/contracts/token/ERC721/ERC721.sol\";\nimport \"@openzeppelin/contracts/token/ERC721/extensions/ERC721URIStorage.sol\";\n\ncontract NFTManage is ERC721URIStorage{\n    struct NFT{\n        address owner;\n        address minter;\n        address previous_owner;\n        uint256 token_ID;\n        string name;\n        bool onSale;\n        string URI;\n    }\n    NFT[] public NFTs;\n    uint ID_counter;\n\n    constructor() ERC721(\"NFTManage\", \"NFT\"){}\n\n    event TokenCreated(address owner, uint256 token_ID);\n    event TokenTransfered(uint256 token_ID, address from, address to);\n\n    function createToken(address owner, string memory uri, string memory name) public{\n        _safeMint(owner, ID_counter);\n        _setTokenURI(ID_counter, uri);\n        NFT memory newNFT = NFT(owner, owner, owner, ID_counter, name, false, uri);\n        NFTs.push(newNFT);\n        ID_counter += 1;\n        emit TokenCreated(owner, ID_counter);\n    }\n\n    function transferToken(uint256 token_ID, address from, address to) public{\n        if (token_ID > ID_counter) revert();\n        safeTransferFrom(from, to, token_ID);\n        NFTs[token_ID].previous_owner = NFTs[token_ID].owner;\n        NFTs[token_ID].owner = to;\n        NFTs[token_ID].onSale = false;\n        emit TokenTransfered(token_ID, from, to);\n    }\n\n    function setOnSale(uint256 token_ID) public{\n        if (token_ID > ID_counter) revert();\n        if (msg.sender != NFTs[token_ID].owner) revert();\n        NFTs[token_ID].onSale = true;\n    }\n\n    function setNotOnSale(uint256 token_ID) public{\n        if (token_ID > ID_counter) revert();\n        if (msg.sender != NFTs[token_ID].owner) revert();\n        NFTs[token_ID].onSale = false;\n    }\n\n    function allNFTs() public view returns(NFT[] memory){\n        return NFTs;\n    }\n\n    function LookUpURI(uint256 token_ID) public view returns(string memory){\n        return NFTs[token_ID].URI;\n    }\n\n    function LookUpStatus(uint256 token_ID) public view returns(bool){\n        return NFTs[token_ID].onSale;\n    }\n}",
  "sourcePath": "/home/cr7st/BlockChain/NFT_auction/contracts/NFTManage.sol",
  "compiler": {
    "name": "solc",
    "version": "0.8.9+commit.e5eed63a.Emscripten.clang"
  },
  "schemaVersion": "3.4.3",
  "updatedAt": "2021-11-02T12:29:25.803Z",
  "networkType": "ethereum",
  "devdoc": {
    "kind": "dev",
    "methods": {
      "approve(address,uint256)": {
        "details": "See {IERC721-approve}."
      },
      "balanceOf(address)": {
        "details": "See {IERC721-balanceOf}."
      },
      "getApproved(uint256)": {
        "details": "See {IERC721-getApproved}."
      },
      "isApprovedForAll(address,address)": {
        "details": "See {IERC721-isApprovedForAll}."
      },
      "name()": {
        "details": "See {IERC721Metadata-name}."
      },
      "ownerOf(uint256)": {
        "details": "See {IERC721-ownerOf}."
      },
      "safeTransferFrom(address,address,uint256)": {
        "details": "See {IERC721-safeTransferFrom}."
      },
      "safeTransferFrom(address,address,uint256,bytes)": {
        "details": "See {IERC721-safeTransferFrom}."
      },
      "setApprovalForAll(address,bool)": {
        "details": "See {IERC721-setApprovalForAll}."
      },
      "supportsInterface(bytes4)": {
        "details": "See {IERC165-supportsInterface}."
      },
      "symbol()": {
        "details": "See {IERC721Metadata-symbol}."
      },
      "tokenURI(uint256)": {
        "details": "See {IERC721Metadata-tokenURI}."
      },
      "transferFrom(address,address,uint256)": {
        "details": "See {IERC721-transferFrom}."
      }
    },
    "version": 1
  },
  "userdoc": {
    "kind": "user",
    "methods": {},
    "version": 1
  }
}